:1070000033C0000044C0000042C0000040C0000087
:107010003EC000003CC000003AC0000038C0000084
:1070200036C0000034C0000032C0000030C0000094
:107030002EC000002CC000002AC0000028C00000A4
:1070400026C0000024C0000022C0000020C00000B4
:107050001EC000001CC000001AC0000018C00000C4
:1070600016C0000014C0000011241FBECFEFD8E0EE
:10707000DEBFCDBF11E0A0E0B1E0ECE7F2E702C077
:1070800005900D92A432B107D9F72CD0DDC0B8CF4E
:107090001092C50086E68093C40088E18093C10009
:1070A00080E28093C00086E08093C20008958091C2
:1070B000C00087FFFCCF8091C60008959091C0006A
:1070C00095FFFCCF8093C6000895CF93DF93EC012A
:1070D000899118161CF0DF91CF910895EFDFF8CF5A
:1070E000805DECCFCF93DF93CDB7DEB7C058D10929
:1070F0000FB6F894DEBF0FBECDBFCADF90E080E0D0
:107100009E012F5F3F4F59014E0131E8830E911CC4
:1071100023E0322E31E1432E8130910529F0029790
:1071200091F080E091E0D1DFC2DF8535D1F4BFDF9F
:10713000182FBDDFBCDFBBDF682EB9DF782EB7DFCD
:10714000582EB5DF082F962D872D163009F468C00C
:1071500058F41330F1F0153009F45AC082E090E091
:10716000DBCF81E090E0D8CF173009F465C0183C40
:10717000A9F78BE191E0A9DF85E5A0DF81E09EDF43
:1071800080E09CDF8AEA9ADF0C94000085E096DFBD
:10719000CBCF8AE091E099DF852D90DF802F8EDFC5
:1071A000F62CE72C862D8ADF872D88DF65017FDFAF
:1071B000F60181936F01E815F905C9F7F7013092DF
:1071C0005700E89507B600FCFDCFD50121E0A701E7
:1071D0004A195B098C91FA01EA0FFB1F11969C91E9
:1071E00011970C0120935700E89511241296AC15C5
:1071F000BD0581F785E0F70180935700E89507B654
:1072000000FCFDCF40925700E89584E191E08BCFE0
:1072100085E554DF80E052DF80E850DF8AEAB7CFAF
:10722000F999FECF602F1AD0F999FECF85E546DF98
:10723000802F44DF80E0F1CFF999FECF07D0F82E00
:1072400085E53CDF8F2DF5CFF89416C0F999FECF78
:1072500092BD81BDF89A992780B50895262FF99996
:10726000FECF1FBA92BD81BD20BD0FB6F894FA9A29
:0C727000F99A0FBE01960895F894FFCF24
:10727C000D0A53746172740D0A0020466C3D7374D0
:10728C006172740020466C3D6F6B0020474F5F416C
:04729C0050503D0011
:040000030000700089
:00000001FF
