:1070000033C0000044C0000042C0000040C0000087
:107010003EC000003CC000003AC0000038C0000084
:1070200036C0000034C0000032C0000030C0000094
:107030002EC000002CC000002AC0000028C00000A4
:1070400026C0000024C0000022C0000020C00000B4
:107050001EC000001CC000001AC0000018C00000C4
:1070600016C0000014C0000011241FBECFEFD8E0EE
:10707000DEBFCDBF11E0A0E0B1E0ECE0F3E702C07D
:1070800005900D92A833B107D9F72CD025C1B8CF00
:107090001092C50086E68093C40088E18093C10009
:1070A00080E28093C00086E08093C20008958091C2
:1070B000C00087FFFCCF8091C60008959091C0006A
:1070C00095FFFCCF8093C6000895CF93DF93EC012A
:1070D000899118161CF0DF91CF910895EFDFF8CF5A
:1070E000805DECCFCF93DF93CDB7DEB7C058D10929
:1070F0000FB6F894DEBF0FBECDBFCADF90E080E0D0
:1071000021E2922E9E012F5F3F4F29011E0131E89F
:10711000230E311C8130910529F0029791F080E017
:1071200091E0D3DFC4DF8535F9F4C1DFF82EBFDF8E
:10713000BEDFBDDFC82EBBDFD82EB9DF882EB7DF9C
:10714000E82E86E0F81609F49BC08F1580F0E4E085
:10715000FE1639F1EF1508F48BC0F3E0FF1609F4C1
:1071600046C082E090E0D6CF81E090E0D3CF28E027
:10717000F21609F49DC0F21608F490C038ECF31230
:10718000F0CF8EE291E0A1DF85E598DF81E096DF28
:1071900080E094DF8AEA92DF0C94000085E08EDFC5
:1071A000C1CF8AE091E091DF882D88DF8E2D86DFC8
:1071B0001C2D0D2D8C2D82DF8D2D80DF80E07EDF5C
:1071C00080E07CDF80E07ADFF8015F0180E8A80ED4
:1071D000B11CEA15FB0518F085E191E0A2CF3F0153
:1071E0002FEF621A720A849169DFF301F2CF8DE109
:1071F00091E06BDF882D62DF8E2D60DF1C2D0D2D61
:107200008C2D5CDF8D2D5ADF520151DFF50181930A
:107210005F01E215F305C9F723E0F8012093570059
:10722000E89507B600FCFDCFD20121E0A801441982
:1072300055098C91FA01EA0FFB1F11969C91119749
:107240000C0120935700E89511241296AA15BB054E
:1072500081F785E0F80180935700E89507B600FCB8
:10726000FDCFF1E1F0935700E89587E291E059CF27
:1072700085E524DF80E022DF80E820DF8AEA8FCF07
:107280009C2D8D2DF999FECF6E2D30D0F999FECF22
:1072900085E514DF8E2D12DF80E0EFCF9C2D8D2D44
:1072A000F999FECF1BD0182F85E508DF812FF3CF8A
:1072B00085E504DFF0E0E0E0909257008491FEDE87
:1072C000E2E0F0E0909257008491F8DEE4E0F0E034
:1072D000909257008491DFCFF89416C0F999FECFB1
:1072E00092BD81BDF89A992780B50895262FF99906
:1072F000FECF1FBA92BD81BD20BD0FB6F894FA9A99
:0C730000F99A0FBE01960895F894FFCF93
:10730C000D0A53746172740D0A0020466C523D7361
:10731C00746172740020466C723D6F6B0020466C79
:10732C003D73746172740020466C3D6F6B00204796
:08733C004F5F4150503D00007D
:040000030000700089
:00000001FF
