:100000000C9434000C9449000C9449000C94490061
:100010000C9449000C9449000C9449000C9449003C
:100020000C9449000C9449000C9449000C9449002C
:100030000C9449000C9449000C9449000C9449001C
:100040000C9449000C9449000C9449000C9449000C
:100050000C9449000C9449000C9449000C944900FC
:100060000C9449000C94490011241FBECFEFD8E036
:10007000DEBFCDBF11E0A0E0B1E0ECE0F1E002C0F6
:1000800005900D92A630B107D9F70E9474000C9428
:1000900084000C9400001092C50086E68093C40092
:1000A00088E18093C10080E28093C00086E0809365
:1000B000C20008958091C00087FFFCCF8091C600E8
:1000C00008959091C00095FFFCCF8093C6000895DD
:1000D000CF93DF93EC01899118161CF0DF91CF913B
:1000E00008950E946100F7CF0E944B0080E091E0EC
:1000F0000E9468002FEF81EF9BE2215080409040EA
:0C010000E1F700C00000F2CFF894FFCF40
:06010C002D4150500000DF
:00000001FF
