:100000000C9434000C9449000C9449000C94490061
:100010000C9449000C9449000C9449000C9449003C
:100020000C9449000C9449000C9449000C9449002C
:100030000C9449000C9449000C9449000C9449001C
:100040000C9449000C9449000C9449000C9449000C
:100050000C9449000C9449000C9449000C944900FC
:100060000C9449000C94490011241FBECFEFD8E036
:10007000DEBFCDBF11E0A0E0B1E0E2E0F1E002C000
:1000800005900D92AE30B107D9F70E9474000C9420
:100090007F000C9400001092C50086E68093C40097
:1000A00088E18093C10080E28093C00086E0809365
:1000B000C20008958091C00087FFFCCF8091C600E8
:1000C00008959091C00095FFFCCF8093C6000895DD
:1000D000CF93DF93EC01899118161CF0DF91CF913B
:1000E00008950E946100F7CF0E944B003A9A429A0D
:1000F00080E091E00E94680090E080E00895F8942C
:02010000FFCF2F
:0E0102002D4170706C69636174696F6E2D0021
:00000001FF
